{
  "_format": "hh-sol-artifact-1",
  "contractName": "StablecoinSwap",
  "sourceName": "contracts/StablecoinSwap.sol",
  "abi": [
    {
      "inputs": [
        {
          "internalType": "address",
          "name": "token",
          "type": "address"
        }
      ],
      "name": "SafeERC20FailedOperation",
      "type": "error"
    },
    {
      "inputs": [
        {
          "internalType": "address",
          "name": "fromToken",
          "type": "address"
        },
        {
          "internalType": "address",
          "name": "toToken",
          "type": "address"
        },
        {
          "internalType": "uint256",
          "name": "amount",
          "type": "uint256"
        }
      ],
      "name": "swap",
      "outputs": [],
      "stateMutability": "nonpayable",
      "type": "function"
    }
  ],
  "bytecode": "0x608060405234801561001057600080fd5b506104c7806100206000396000f3fe608060405234801561001057600080fd5b506004361061002b5760003560e01c8063df791e5014610030575b600080fd5b61004a60048036038101906100459190610328565b61004c565b005b6000811161008f576040517f08c379a0000000000000000000000000000000000000000000000000000000008152600401610086906103d8565b60405180910390fd5b6100bc3330838673ffffffffffffffffffffffffffffffffffffffff166100ec909392919063ffffffff16565b6100e733828473ffffffffffffffffffffffffffffffffffffffff1661016e9092919063ffffffff16565b505050565b610168848573ffffffffffffffffffffffffffffffffffffffff166323b872dd86868660405160240161012193929190610416565b604051602081830303815290604052915060e01b6020820180517bffffffffffffffffffffffffffffffffffffffffffffffffffffffff83818316178352505050506101ed565b50505050565b6101e8838473ffffffffffffffffffffffffffffffffffffffff1663a9059cbb85856040516024016101a192919061044d565b604051602081830303815290604052915060e01b6020820180517bffffffffffffffffffffffffffffffffffffffffffffffffffffffff83818316178352505050506101ed565b505050565b600080602060008451602086016000885af180610210576040513d6000823e3d81fd5b3d92506000519150506000821461022b576001811415610247565b60008473ffffffffffffffffffffffffffffffffffffffff163b145b1561028957836040517f5274afe70000000000000000000000000000000000000000000000000000000081526004016102809190610476565b60405180910390fd5b50505050565b600080fd5b600073ffffffffffffffffffffffffffffffffffffffff82169050919050565b60006102bf82610294565b9050919050565b6102cf816102b4565b81146102da57600080fd5b50565b6000813590506102ec816102c6565b92915050565b6000819050919050565b610305816102f2565b811461031057600080fd5b50565b600081359050610322816102fc565b92915050565b6000806000606084860312156103415761034061028f565b5b600061034f868287016102dd565b9350506020610360868287016102dd565b925050604061037186828701610313565b9150509250925092565b600082825260208201905092915050565b7f416d6f756e74206d757374206265203e20300000000000000000000000000000600082015250565b60006103c260128361037b565b91506103cd8261038c565b602082019050919050565b600060208201905081810360008301526103f1816103b5565b9050919050565b610401816102b4565b82525050565b610410816102f2565b82525050565b600060608201905061042b60008301866103f8565b61043860208301856103f8565b6104456040830184610407565b949350505050565b600060408201905061046260008301856103f8565b61046f6020830184610407565b9392505050565b600060208201905061048b60008301846103f8565b9291505056fea2646970667358221220bca3f834e1688c8caf79e2b3faab8f51a77073481dc2494846c3f6341b3ab59664736f6c63430008140033",
  "linkReferences": {},
  "deployedLinkReferences": {}
}